{
  "contractName": "Vault",
  "abi": [
    {
      "inputs": [
        {
          "internalType": "contract StableCoinToken",
          "name": "_token",
          "type": "address"
        },
        {
          "internalType": "contract PriceConsumerV3",
          "name": "_oracle",
          "type": "address"
        }
      ],
      "stateMutability": "nonpayable",
      "type": "constructor"
    },
    {
      "anonymous": false,
      "inputs": [
        {
          "indexed": false,
          "internalType": "uint256",
          "name": "collateralDeposited",
          "type": "uint256"
        },
        {
          "indexed": false,
          "internalType": "uint256",
          "name": "amountMinted",
          "type": "uint256"
        }
      ],
      "name": "Deposit",
      "type": "event"
    },
    {
      "anonymous": false,
      "inputs": [
        {
          "indexed": true,
          "internalType": "address",
          "name": "previousOwner",
          "type": "address"
        },
        {
          "indexed": true,
          "internalType": "address",
          "name": "newOwner",
          "type": "address"
        }
      ],
      "name": "OwnershipTransferred",
      "type": "event"
    },
    {
      "anonymous": false,
      "inputs": [
        {
          "indexed": false,
          "internalType": "uint256",
          "name": "collateralWithdrawn",
          "type": "uint256"
        },
        {
          "indexed": false,
          "internalType": "uint256",
          "name": "amountBurned",
          "type": "uint256"
        }
      ],
      "name": "Withdraw",
      "type": "event"
    },
    {
      "inputs": [],
      "name": "owner",
      "outputs": [
        {
          "internalType": "address",
          "name": "",
          "type": "address"
        }
      ],
      "stateMutability": "view",
      "type": "function",
      "constant": true
    },
    {
      "inputs": [],
      "name": "renounceOwnership",
      "outputs": [],
      "stateMutability": "nonpayable",
      "type": "function"
    },
    {
      "inputs": [],
      "name": "token",
      "outputs": [
        {
          "internalType": "contract StableCoinToken",
          "name": "",
          "type": "address"
        }
      ],
      "stateMutability": "view",
      "type": "function",
      "constant": true
    },
    {
      "inputs": [
        {
          "internalType": "address",
          "name": "newOwner",
          "type": "address"
        }
      ],
      "name": "transferOwnership",
      "outputs": [],
      "stateMutability": "nonpayable",
      "type": "function"
    },
    {
      "inputs": [
        {
          "internalType": "uint256",
          "name": "amountToDeposit",
          "type": "uint256"
        }
      ],
      "name": "deposit",
      "outputs": [],
      "stateMutability": "payable",
      "type": "function",
      "payable": true
    },
    {
      "inputs": [
        {
          "internalType": "uint256",
          "name": "repaymentAmount",
          "type": "uint256"
        }
      ],
      "name": "withdraw",
      "outputs": [],
      "stateMutability": "nonpayable",
      "type": "function"
    },
    {
      "inputs": [
        {
          "internalType": "address",
          "name": "userAddress",
          "type": "address"
        }
      ],
      "name": "getVault",
      "outputs": [
        {
          "components": [
            {
              "internalType": "uint256",
              "name": "collateralAmount",
              "type": "uint256"
            },
            {
              "internalType": "uint256",
              "name": "debtAmount",
              "type": "uint256"
            }
          ],
          "internalType": "struct IVault.Vault",
          "name": "vault",
          "type": "tuple"
        }
      ],
      "stateMutability": "view",
      "type": "function",
      "constant": true
    },
    {
      "inputs": [
        {
          "internalType": "uint256",
          "name": "repaymentAmount",
          "type": "uint256"
        }
      ],
      "name": "estimateCollateralAmount",
      "outputs": [
        {
          "internalType": "uint256",
          "name": "collateralAmount",
          "type": "uint256"
        }
      ],
      "stateMutability": "view",
      "type": "function",
      "constant": true
    },
    {
      "inputs": [
        {
          "internalType": "uint256",
          "name": "depositAmount",
          "type": "uint256"
        }
      ],
      "name": "estimateTokenAmount",
      "outputs": [
        {
          "internalType": "uint256",
          "name": "tokenAmount",
          "type": "uint256"
        }
      ],
      "stateMutability": "view",
      "type": "function",
      "constant": true
    },
    {
      "inputs": [],
      "name": "getEthUSDPrice",
      "outputs": [
        {
          "internalType": "uint256",
          "name": "",
          "type": "uint256"
        }
      ],
      "stateMutability": "view",
      "type": "function",
      "constant": true
    },
    {
      "inputs": [],
      "name": "getToken",
      "outputs": [
        {
          "internalType": "address",
          "name": "",
          "type": "address"
        }
      ],
      "stateMutability": "view",
      "type": "function",
      "constant": true
    },
    {
      "inputs": [
        {
          "internalType": "address",
          "name": "_oracle",
          "type": "address"
        }
      ],
      "name": "setOracle",
      "outputs": [],
      "stateMutability": "nonpayable",
      "type": "function"
    },
    {
      "inputs": [],
      "name": "getOracle",
      "outputs": [
        {
          "internalType": "address",
          "name": "",
          "type": "address"
        }
      ],
      "stateMutability": "view",
      "type": "function",
      "constant": true
    }
  ],
  "bytecode": "0x60806040523480156200001157600080fd5b50604051620016e2380380620016e2833981810160405281019062000037919062000270565b620000576200004b620000e160201b60201c565b620000e960201b60201c565b81600260006101000a81548173ffffffffffffffffffffffffffffffffffffffff021916908373ffffffffffffffffffffffffffffffffffffffff16021790555080600360006101000a81548173ffffffffffffffffffffffffffffffffffffffff021916908373ffffffffffffffffffffffffffffffffffffffff1602179055505050620002b7565b600033905090565b60008060009054906101000a900473ffffffffffffffffffffffffffffffffffffffff169050816000806101000a81548173ffffffffffffffffffffffffffffffffffffffff021916908373ffffffffffffffffffffffffffffffffffffffff1602179055508173ffffffffffffffffffffffffffffffffffffffff168173ffffffffffffffffffffffffffffffffffffffff167f8be0079c531659141344cd1fd0a4f28419497f9722a3daafe3b4186f6b6457e060405160405180910390a35050565b600080fd5b600073ffffffffffffffffffffffffffffffffffffffff82169050919050565b6000620001df82620001b2565b9050919050565b6000620001f382620001d2565b9050919050565b6200020581620001e6565b81146200021157600080fd5b50565b6000815190506200022581620001fa565b92915050565b60006200023882620001d2565b9050919050565b6200024a816200022b565b81146200025657600080fd5b50565b6000815190506200026a816200023f565b92915050565b600080604083850312156200028a5762000289620001ad565b5b60006200029a8582860162000214565b9250506020620002ad8582860162000259565b9150509250929050565b61141b80620002c76000396000f3fe6080604052600436106100c25760003560e01c80637adbf9731161007f578063b6b55f2511610059578063b6b55f2514610268578063d84549d714610284578063f2fde38b146102af578063fc0c546a146102d8576100c2565b80637adbf973146101e9578063833b1fce146102125780638da5cb5b1461023d576100c2565b80630eb9af38146100c75780631b05ab791461010457806321df0da7146101415780632e1a7d4d1461016c57806356bfdaf514610195578063715018a6146101d2575b600080fd5b3480156100d357600080fd5b506100ee60048036038101906100e99190610d78565b610303565b6040516100fb9190610ded565b60405180910390f35b34801561011057600080fd5b5061012b60048036038101906101269190610e34565b610370565b6040516101389190610e70565b60405180910390f35b34801561014d57600080fd5b5061015661038c565b6040516101639190610e9a565b60405180910390f35b34801561017857600080fd5b50610193600480360381019061018e9190610e34565b6103b6565b005b3480156101a157600080fd5b506101bc60048036038101906101b79190610e34565b610707565b6040516101c99190610e70565b60405180910390f35b3480156101de57600080fd5b506101e7610723565b005b3480156101f557600080fd5b50610210600480360381019061020b9190610d78565b6107ab565b005b34801561021e57600080fd5b5061022761086b565b6040516102349190610e9a565b60405180910390f35b34801561024957600080fd5b50610252610895565b60405161025f9190610e9a565b60405180910390f35b610282600480360381019061027d9190610e34565b6108be565b005b34801561029057600080fd5b50610299610a65565b6040516102a69190610e70565b60405180910390f35b3480156102bb57600080fd5b506102d660048036038101906102d19190610d78565b610b12565b005b3480156102e457600080fd5b506102ed610c09565b6040516102fa9190610f14565b60405180910390f35b61030b610cfb565b600160008373ffffffffffffffffffffffffffffffffffffffff1673ffffffffffffffffffffffffffffffffffffffff168152602001908152602001600020604051806040016040529081600082015481526020016001820154815250509050919050565b600061037a610a65565b826103859190610f5e565b9050919050565b6000600260009054906101000a900473ffffffffffffffffffffffffffffffffffffffff16905090565b600160003373ffffffffffffffffffffffffffffffffffffffff1673ffffffffffffffffffffffffffffffffffffffff1681526020019081526020016000206001015481111561043b576040517f08c379a000000000000000000000000000000000000000000000000000000000815260040161043290611015565b60405180910390fd5b80600260009054906101000a900473ffffffffffffffffffffffffffffffffffffffff1673ffffffffffffffffffffffffffffffffffffffff166370a08231336040518263ffffffff1660e01b81526004016104979190610e9a565b602060405180830381865afa1580156104b4573d6000803e3d6000fd5b505050506040513d601f19601f820116820180604052508101906104d8919061104a565b1015610519576040517f08c379a0000000000000000000000000000000000000000000000000000000008152600401610510906110c3565b60405180910390fd5b6000610523610a65565b8261052e9190611112565b9050600260009054906101000a900473ffffffffffffffffffffffffffffffffffffffff1673ffffffffffffffffffffffffffffffffffffffff16639dc29fac33846040518363ffffffff1660e01b815260040161058d929190611143565b6020604051808303816000875af11580156105ac573d6000803e3d6000fd5b505050506040513d601f19601f820116820180604052508101906105d091906111a4565b5080600160003373ffffffffffffffffffffffffffffffffffffffff1673ffffffffffffffffffffffffffffffffffffffff168152602001908152602001600020600001600082825461062391906111d1565b9250508190555081600160003373ffffffffffffffffffffffffffffffffffffffff1673ffffffffffffffffffffffffffffffffffffffff168152602001908152602001600020600101600082825461067c91906111d1565b925050819055503373ffffffffffffffffffffffffffffffffffffffff166108fc829081150290604051600060405180830381858888f193505050501580156106c9573d6000803e3d6000fd5b507f56ca301a9219608c91e7bcee90e083c19671d2cdcc96752c7af291cee5f9c8c881836040516106fb929190611205565b60405180910390a15050565b6000610711610a65565b8261071c9190611112565b9050919050565b61072b610c2f565b73ffffffffffffffffffffffffffffffffffffffff16610749610895565b73ffffffffffffffffffffffffffffffffffffffff161461079f576040517f08c379a00000000000000000000000000000000000000000000000000000000081526004016107969061127a565b60405180910390fd5b6107a96000610c37565b565b6107b3610c2f565b73ffffffffffffffffffffffffffffffffffffffff166107d1610895565b73ffffffffffffffffffffffffffffffffffffffff1614610827576040517f08c379a000000000000000000000000000000000000000000000000000000000815260040161081e9061127a565b60405180910390fd5b80600360006101000a81548173ffffffffffffffffffffffffffffffffffffffff021916908373ffffffffffffffffffffffffffffffffffffffff16021790555050565b6000600360009054906101000a900473ffffffffffffffffffffffffffffffffffffffff16905090565b60008060009054906101000a900473ffffffffffffffffffffffffffffffffffffffff16905090565b60006108c8610a65565b826108d39190610f5e565b9050600260009054906101000a900473ffffffffffffffffffffffffffffffffffffffff1673ffffffffffffffffffffffffffffffffffffffff166340c10f1933836040518363ffffffff1660e01b8152600401610932929190611143565b6020604051808303816000875af1158015610951573d6000803e3d6000fd5b505050506040513d601f19601f8201168201806040525081019061097591906111a4565b5081600160003373ffffffffffffffffffffffffffffffffffffffff1673ffffffffffffffffffffffffffffffffffffffff16815260200190815260200160002060000160008282546109c8919061129a565b9250508190555080600160003373ffffffffffffffffffffffffffffffffffffffff1673ffffffffffffffffffffffffffffffffffffffff1681526020019081526020016000206001016000828254610a21919061129a565b925050819055507fa3af609bf46297028ce551832669030f9effef2b02606d02cbbcc40fe6b47c558282604051610a59929190611205565b60405180910390a15050565b600080600360009054906101000a900473ffffffffffffffffffffffffffffffffffffffff1673ffffffffffffffffffffffffffffffffffffffff16638e15f4736040518163ffffffff1660e01b8152600401602060405180830381865afa158015610ad5573d6000803e3d6000fd5b505050506040513d601f19601f82011682018060405250810190610af99190611326565b90506402540be40081610b0c9190610f5e565b91505090565b610b1a610c2f565b73ffffffffffffffffffffffffffffffffffffffff16610b38610895565b73ffffffffffffffffffffffffffffffffffffffff1614610b8e576040517f08c379a0000000000000000000000000000000000000000000000000000000008152600401610b859061127a565b60405180910390fd5b600073ffffffffffffffffffffffffffffffffffffffff168173ffffffffffffffffffffffffffffffffffffffff1603610bfd576040517f08c379a0000000000000000000000000000000000000000000000000000000008152600401610bf4906113c5565b60405180910390fd5b610c0681610c37565b50565b600260009054906101000a900473ffffffffffffffffffffffffffffffffffffffff1681565b600033905090565b60008060009054906101000a900473ffffffffffffffffffffffffffffffffffffffff169050816000806101000a81548173ffffffffffffffffffffffffffffffffffffffff021916908373ffffffffffffffffffffffffffffffffffffffff1602179055508173ffffffffffffffffffffffffffffffffffffffff168173ffffffffffffffffffffffffffffffffffffffff167f8be0079c531659141344cd1fd0a4f28419497f9722a3daafe3b4186f6b6457e060405160405180910390a35050565b604051806040016040528060008152602001600081525090565b600080fd5b600073ffffffffffffffffffffffffffffffffffffffff82169050919050565b6000610d4582610d1a565b9050919050565b610d5581610d3a565b8114610d6057600080fd5b50565b600081359050610d7281610d4c565b92915050565b600060208284031215610d8e57610d8d610d15565b5b6000610d9c84828501610d63565b91505092915050565b6000819050919050565b610db881610da5565b82525050565b604082016000820151610dd46000850182610daf565b506020820151610de76020850182610daf565b50505050565b6000604082019050610e026000830184610dbe565b92915050565b610e1181610da5565b8114610e1c57600080fd5b50565b600081359050610e2e81610e08565b92915050565b600060208284031215610e4a57610e49610d15565b5b6000610e5884828501610e1f565b91505092915050565b610e6a81610da5565b82525050565b6000602082019050610e856000830184610e61565b92915050565b610e9481610d3a565b82525050565b6000602082019050610eaf6000830184610e8b565b92915050565b6000819050919050565b6000610eda610ed5610ed084610d1a565b610eb5565b610d1a565b9050919050565b6000610eec82610ebf565b9050919050565b6000610efe82610ee1565b9050919050565b610f0e81610ef3565b82525050565b6000602082019050610f296000830184610f05565b92915050565b7f4e487b7100000000000000000000000000000000000000000000000000000000600052601160045260246000fd5b6000610f6982610da5565b9150610f7483610da5565b9250817fffffffffffffffffffffffffffffffffffffffffffffffffffffffffffffffff0483118215151615610fad57610fac610f2f565b5b828202905092915050565b600082825260208201905092915050565b7f7769746864726177206c696d6974206578636565646564000000000000000000600082015250565b6000610fff601783610fb8565b915061100a82610fc9565b602082019050919050565b6000602082019050818103600083015261102e81610ff2565b9050919050565b60008151905061104481610e08565b92915050565b6000602082840312156110605761105f610d15565b5b600061106e84828501611035565b91505092915050565b7f6e6f7420656e6f75676820746f6b656e7320696e2062616c616e636500000000600082015250565b60006110ad601c83610fb8565b91506110b882611077565b602082019050919050565b600060208201905081810360008301526110dc816110a0565b9050919050565b7f4e487b7100000000000000000000000000000000000000000000000000000000600052601260045260246000fd5b600061111d82610da5565b915061112883610da5565b925082611138576111376110e3565b5b828204905092915050565b60006040820190506111586000830185610e8b565b6111656020830184610e61565b9392505050565b60008115159050919050565b6111818161116c565b811461118c57600080fd5b50565b60008151905061119e81611178565b92915050565b6000602082840312156111ba576111b9610d15565b5b60006111c88482850161118f565b91505092915050565b60006111dc82610da5565b91506111e783610da5565b9250828210156111fa576111f9610f2f565b5b828203905092915050565b600060408201905061121a6000830185610e61565b6112276020830184610e61565b9392505050565b7f4f776e61626c653a2063616c6c6572206973206e6f7420746865206f776e6572600082015250565b6000611264602083610fb8565b915061126f8261122e565b602082019050919050565b6000602082019050818103600083015261129381611257565b9050919050565b60006112a582610da5565b91506112b083610da5565b9250827fffffffffffffffffffffffffffffffffffffffffffffffffffffffffffffffff038211156112e5576112e4610f2f565b5b828201905092915050565b6000819050919050565b611303816112f0565b811461130e57600080fd5b50565b600081519050611320816112fa565b92915050565b60006020828403121561133c5761133b610d15565b5b600061134a84828501611311565b91505092915050565b7f4f776e61626c653a206e6577206f776e657220697320746865207a65726f206160008201527f6464726573730000000000000000000000000000000000000000000000000000602082015250565b60006113af602683610fb8565b91506113ba82611353565b604082019050919050565b600060208201905081810360008301526113de816113a2565b905091905056fea2646970667358221220514a10c369102552dc8d94bb7b34fa19258ed4a4226fa088b739ac02e437312c64736f6c634300080f0033",
  "immutableReferences": {},
  "source": "// SPDX-License-Identifier: MIT\npragma solidity ^0.8.0;\n\nimport \"../interfaces/IVault.sol\";\nimport \"./Coin.sol\";\nimport \"./PriceConsumerV3.sol\";\nimport \"@openzeppelin/contracts/access/Ownable.sol\";\n// import \"@openzeppelin/contracts/utils/math/SafeMath.sol\";\n\ncontract Vault is IVault, Ownable {\n\n    mapping (address => Vault) vaults;\n    StableCoinToken public token;\n    PriceConsumerV3 private oracle;\n    // using SafeMath for uint256;\n\n    constructor(StableCoinToken _token, PriceConsumerV3 _oracle){\n        token = _token;\n        oracle = _oracle;\n    }\n\n    /**\n    @notice Allows a user to deposit ETH collateral in exchange for some amount of stablecoin\n    @param amountToDeposit  The amount of ether the user sent in the transaction\n     */\n    function deposit(uint256 amountToDeposit) override payable external {\n        uint256 amountToMint = amountToDeposit * getEthUSDPrice();\n        token.mint(msg.sender, amountToMint);\n        vaults[msg.sender].collateralAmount += amountToDeposit;\n        vaults[msg.sender].debtAmount += amountToMint;\n        emit Deposit(amountToDeposit, amountToMint);\n    }\n    \n    /**\n    @notice Allows a user to withdraw up to 100% of the collateral they have on deposit\n    @dev This cannot allow a user to withdraw more than they put in\n    @param repaymentAmount  the amount of stablecoin that a user is repaying to redeem their collateral for.\n     */\n    function withdraw(uint256 repaymentAmount) override external {\n        require(repaymentAmount <= vaults[msg.sender].debtAmount, \"withdraw limit exceeded\"); \n        require(token.balanceOf(msg.sender) >= repaymentAmount, \"not enough tokens in balance\");\n        uint256 amountToWithdraw = repaymentAmount / getEthUSDPrice();\n        token.burn(msg.sender, repaymentAmount);\n        vaults[msg.sender].collateralAmount -= amountToWithdraw;\n        vaults[msg.sender].debtAmount -= repaymentAmount;\n        payable(msg.sender).transfer(amountToWithdraw);\n        emit Withdraw(amountToWithdraw, repaymentAmount);\n    }\n\n    \n    /**\n    @notice Returns the details of a vault\n    @param userAddress  the address of the vault owner\n    @return vault  the vault details\n     */\n    function getVault(address userAddress) external view override returns(Vault memory vault) {\n        return vaults[userAddress];\n    }\n    \n    /**\n    @notice Returns an estimate of how much collateral could be withdrawn for a given amount of stablecoin\n    @param repaymentAmount  the amount of stable coin that would be repaid\n    @return collateralAmount the estimated amount of a vault's collateral that would be returned \n     */\n    function estimateCollateralAmount(uint256 repaymentAmount) external view override  returns(uint256 collateralAmount) {\n        return repaymentAmount / getEthUSDPrice();\n    }\n    \n    /**\n    @notice Returns an estimate on how much stable coin could be minted at the current rate\n    @param depositAmount the amount of ETH that would be deposited\n    @return tokenAmount  the estimated amount of stablecoin that would be minted\n     */\n    function estimateTokenAmount(uint256 depositAmount) external view override returns(uint256 tokenAmount) {\n        return depositAmount * getEthUSDPrice();\n    }\n\n    function getEthUSDPrice() public view returns (uint256){\n        uint price8 = uint(oracle.getLatestPrice());\n        return price8*(10**10);\n    }\n\n    function getToken() external view returns (address){\n        return address(token);\n    }\n\n    function setOracle(address _oracle) public onlyOwner {\n        oracle = PriceConsumerV3(_oracle);\n    }\n\n    function getOracle() public view returns (address) {\n        return address(oracle);\n    }\n}\n",
  "sourcePath": "/Users/syed/Desktop/poli/lending_dapp/contracts/implementations/Vault.sol",
  "compiler": {
    "name": "solc",
    "version": "0.8.15+commit.e14f2714.Emscripten.clang"
  },
  "schemaVersion": "3.4.7",
  "updatedAt": "2022-07-02T05:54:06.952Z",
  "networkType": "ethereum",
  "devdoc": {
    "kind": "dev",
    "methods": {
      "deposit(uint256)": {
        "params": {
          "amountToDeposit": "The amount of ether the user sent in the transaction"
        }
      },
      "estimateCollateralAmount(uint256)": {
        "params": {
          "repaymentAmount": "the amount of stable coin that would be repaid"
        },
        "returns": {
          "collateralAmount": "the estimated amount of a vault's collateral that would be returned "
        }
      },
      "estimateTokenAmount(uint256)": {
        "params": {
          "depositAmount": "the amount of ETH that would be deposited"
        },
        "returns": {
          "tokenAmount": " the estimated amount of stablecoin that would be minted"
        }
      },
      "getVault(address)": {
        "params": {
          "userAddress": "the address of the vault owner"
        },
        "returns": {
          "vault": " the vault details"
        }
      },
      "owner()": {
        "details": "Returns the address of the current owner."
      },
      "renounceOwnership()": {
        "details": "Leaves the contract without owner. It will not be possible to call `onlyOwner` functions anymore. Can only be called by the current owner. NOTE: Renouncing ownership will leave the contract without an owner, thereby removing any functionality that is only available to the owner."
      },
      "transferOwnership(address)": {
        "details": "Transfers ownership of the contract to a new account (`newOwner`). Can only be called by the current owner."
      },
      "withdraw(uint256)": {
        "details": "This cannot allow a user to withdraw more than they put in",
        "params": {
          "repaymentAmount": "the amount of stablecoin that a user is repaying to redeem their collateral for."
        }
      }
    },
    "version": 1
  },
  "userdoc": {
    "kind": "user",
    "methods": {
      "deposit(uint256)": {
        "notice": "Allows a user to deposit ETH collateral in exchange for some amount of stablecoin"
      },
      "estimateCollateralAmount(uint256)": {
        "notice": "Returns an estimate of how much collateral could be withdrawn for a given amount of stablecoin"
      },
      "estimateTokenAmount(uint256)": {
        "notice": "Returns an estimate on how much stable coin could be minted at the current rate"
      },
      "getVault(address)": {
        "notice": "Returns the details of a vault"
      },
      "withdraw(uint256)": {
        "notice": "Allows a user to withdraw up to 100% of the collateral they have on deposit"
      }
    },
    "version": 1
  }
}